{
  "contractName": "VendingMachine",
  "abi": [
    {
      "inputs": [],
      "stateMutability": "nonpayable",
      "type": "constructor"
    },
    {
      "inputs": [],
      "name": "balance_count",
      "outputs": [
        {
          "internalType": "uint256",
          "name": "",
          "type": "uint256"
        }
      ],
      "stateMutability": "view",
      "type": "function",
      "constant": true
    },
    {
      "inputs": [
        {
          "internalType": "address",
          "name": "",
          "type": "address"
        }
      ],
      "name": "balances",
      "outputs": [
        {
          "internalType": "uint256",
          "name": "",
          "type": "uint256"
        }
      ],
      "stateMutability": "view",
      "type": "function",
      "constant": true
    },
    {
      "inputs": [],
      "name": "machine_balance",
      "outputs": [
        {
          "internalType": "uint256",
          "name": "",
          "type": "uint256"
        }
      ],
      "stateMutability": "view",
      "type": "function",
      "constant": true
    },
    {
      "inputs": [
        {
          "internalType": "address",
          "name": "eth_address",
          "type": "address"
        }
      ],
      "name": "addPerson",
      "outputs": [],
      "stateMutability": "nonpayable",
      "type": "function"
    },
    {
      "inputs": [
        {
          "internalType": "uint256",
          "name": "amount",
          "type": "uint256"
        }
      ],
      "name": "buyFromMachine",
      "outputs": [],
      "stateMutability": "nonpayable",
      "type": "function"
    },
    {
      "inputs": [
        {
          "internalType": "address",
          "name": "eth_address",
          "type": "address"
        },
        {
          "internalType": "uint256",
          "name": "amount",
          "type": "uint256"
        }
      ],
      "name": "buyFromUser",
      "outputs": [],
      "stateMutability": "nonpayable",
      "type": "function"
    },
    {
      "inputs": [],
      "name": "myEconomicState",
      "outputs": [
        {
          "internalType": "string",
          "name": "",
          "type": "string"
        }
      ],
      "stateMutability": "view",
      "type": "function",
      "constant": true
    }
  ],
  "bytecode": "0x6080604052606460005534801561001557600080fd5b5033600260006101000a81548173ffffffffffffffffffffffffffffffffffffffff021916908373ffffffffffffffffffffffffffffffffffffffff160217905550610914806100666000396000f3fe608060405234801561001057600080fd5b506004361061009a576000357c010000000000000000000000000000000000000000000000000000000090048063bc0e75dd11610078578063bc0e75dd1461010b578063bc672a3814610127578063d019e34f14610143578063d14b42e5146101615761009a565b806327e235e31461009f5780634f1b390f146100cf578063b034ae55146100ed575b600080fd5b6100b960048036038101906100b491906105c3565b61017d565b6040516100c69190610609565b60405180910390f35b6100d7610195565b6040516100e49190610609565b60405180910390f35b6100f561019b565b60405161010291906106b4565b60405180910390f35b61012560048036038101906101209190610702565b6102ad565b005b610141600480360381019061013c91906105c3565b610363565b005b61014b61040d565b6040516101589190610609565b60405180910390f35b61017b6004803603810190610176919061072f565b610413565b005b60036020528060005260406000206000915090505481565b60005481565b60606000600360003373ffffffffffffffffffffffffffffffffffffffff1673ffffffffffffffffffffffffffffffffffffffff1681526020019081526020016000205490506032811015610228576040518060400160405280600481526020017f506f6f72000000000000000000000000000000000000000000000000000000008152509150506102aa565b6101f4811015610270576040518060400160405280600481526020017f52696368000000000000000000000000000000000000000000000000000000008152509150506102aa565b6040518060400160405280600b81526020017f4d696c6c696f6e616972650000000000000000000000000000000000000000008152509150505b90565b8060005410156102f2576040517f08c379a00000000000000000000000000000000000000000000000000000000081526004016102e9906107bb565b60405180910390fd5b80600360003373ffffffffffffffffffffffffffffffffffffffff1673ffffffffffffffffffffffffffffffffffffffff1681526020019081526020016000206000828254610341919061080a565b9250508190555080600080828254610359919061083e565b9250508190555050565b600260009054906101000a900473ffffffffffffffffffffffffffffffffffffffff1673ffffffffffffffffffffffffffffffffffffffff163373ffffffffffffffffffffffffffffffffffffffff16146103bd57600080fd5b6000600360008373ffffffffffffffffffffffffffffffffffffffff1673ffffffffffffffffffffffffffffffffffffffff1681526020019081526020016000208190555061040a610545565b50565b60015481565b80600360008473ffffffffffffffffffffffffffffffffffffffff1673ffffffffffffffffffffffffffffffffffffffff168152602001908152602001600020541015610495576040517f08c379a000000000000000000000000000000000000000000000000000000000815260040161048c906108be565b60405180910390fd5b80600360008473ffffffffffffffffffffffffffffffffffffffff1673ffffffffffffffffffffffffffffffffffffffff16815260200190815260200160002060008282546104e4919061083e565b9250508190555080600360003373ffffffffffffffffffffffffffffffffffffffff1673ffffffffffffffffffffffffffffffffffffffff168152602001908152602001600020600082825461053a919061080a565b925050819055505050565b6001806000828254610557919061080a565b92505081905550565b600080fd5b600073ffffffffffffffffffffffffffffffffffffffff82169050919050565b600061059082610565565b9050919050565b6105a081610585565b81146105ab57600080fd5b50565b6000813590506105bd81610597565b92915050565b6000602082840312156105d9576105d8610560565b5b60006105e7848285016105ae565b91505092915050565b6000819050919050565b610603816105f0565b82525050565b600060208201905061061e60008301846105fa565b92915050565b600081519050919050565b600082825260208201905092915050565b60005b8381101561065e578082015181840152602081019050610643565b60008484015250505050565b6000601f19601f8301169050919050565b600061068682610624565b610690818561062f565b93506106a0818560208601610640565b6106a98161066a565b840191505092915050565b600060208201905081810360008301526106ce818461067b565b905092915050565b6106df816105f0565b81146106ea57600080fd5b50565b6000813590506106fc816106d6565b92915050565b60006020828403121561071857610717610560565b5b6000610726848285016106ed565b91505092915050565b6000806040838503121561074657610745610560565b5b6000610754858286016105ae565b9250506020610765858286016106ed565b9150509250929050565b7f496e73756666696369656e742043757063616b657320696e204d616368696e65600082015250565b60006107a560208361062f565b91506107b08261076f565b602082019050919050565b600060208201905081810360008301526107d481610798565b9050919050565b7f4e487b7100000000000000000000000000000000000000000000000000000000600052601160045260246000fd5b6000610815826105f0565b9150610820836105f0565b9250828201905080821115610838576108376107db565b5b92915050565b6000610849826105f0565b9150610854836105f0565b925082820390508181111561086c5761086b6107db565b5b92915050565b7f5468652075736572206973206e6f742054484154207269636800000000000000600082015250565b60006108a860198361062f565b91506108b382610872565b602082019050919050565b600060208201905081810360008301526108d78161089b565b905091905056fea2646970667358221220a6f2d53867f5c522eff68712121469839491fd49418363cd54de70b159dc361e64736f6c63430008130033",
  "immutableReferences": {},
  "source": "pragma solidity 0.8.19;\r\n\r\ncontract VendingMachine {\r\n\r\n    //variables\r\n    uint public machine_balance = 100;\r\n    uint256 public balance_count;\r\n    address owner;\r\n    mapping(address => uint) public balances;\r\n\r\n    //functions\r\n    constructor() {\r\n        //setting the deployer of the contract as the owner.\r\n        owner = msg.sender;\r\n    }\r\n\r\n    modifier onlyOwner() {\r\n        require(msg.sender == owner);\r\n        _;\r\n    }\r\n\r\n    function addPerson(address eth_address) public onlyOwner {\r\n        balances[eth_address] = 0;\r\n        incrementCount();\r\n    }\r\n\r\n    function incrementCount() internal {\r\n        balance_count += 1;\r\n    }\r\n\r\n    function buyFromMachine(uint amount) public {\r\n        require(machine_balance >= amount,\"Insufficient Cupcakes in Machine\");\r\n        balances[msg.sender] += amount;\r\n        machine_balance -= amount;\r\n    }\r\n\r\n    function buyFromUser(address eth_address,uint amount) public {\r\n        require(balances[eth_address] >= amount,\"The user is not THAT rich\");\r\n        balances[eth_address] -= amount;\r\n        balances[msg.sender] += amount;\r\n    }\r\n\r\n    function myEconomicState() public view returns(string memory) {\r\n        uint b =  balances[msg.sender];\r\n\r\n        if (b < 50) {\r\n            return \"Poor\";\r\n        } else if (b < 500) {\r\n            return \"Rich\";\r\n        } else {\r\n            return \"Millionaire\";\r\n        }\r\n    }\r\n\r\n}",
  "sourcePath": "C:\\Users\\54911\\StudioProjects\\cupcake_eth2\\contracts\\cupcake_contract.sol",
  "compiler": {
    "name": "solc",
    "version": "0.8.19+commit.7dd6d404.Emscripten.clang"
  },
  "schemaVersion": "3.4.13",
  "updatedAt": "2023-03-28T03:10:39.617Z",
  "networkType": "ethereum",
  "devdoc": {
    "kind": "dev",
    "methods": {},
    "version": 1
  },
  "userdoc": {
    "kind": "user",
    "methods": {},
    "version": 1
  }
}