{
  "contractName": "VendingMachine",
  "abi": [
    {
      "inputs": [],
      "stateMutability": "nonpayable",
      "type": "constructor"
    },
    {
      "inputs": [
        {
          "internalType": "uint256",
          "name": "",
          "type": "uint256"
        }
      ],
      "name": "activeAddresses",
      "outputs": [
        {
          "internalType": "address",
          "name": "",
          "type": "address"
        }
      ],
      "stateMutability": "view",
      "type": "function",
      "constant": true
    },
    {
      "inputs": [],
      "name": "balance_count",
      "outputs": [
        {
          "internalType": "uint256",
          "name": "",
          "type": "uint256"
        }
      ],
      "stateMutability": "view",
      "type": "function",
      "constant": true
    },
    {
      "inputs": [
        {
          "internalType": "address",
          "name": "",
          "type": "address"
        }
      ],
      "name": "balances",
      "outputs": [
        {
          "internalType": "uint256",
          "name": "",
          "type": "uint256"
        }
      ],
      "stateMutability": "view",
      "type": "function",
      "constant": true
    },
    {
      "inputs": [],
      "name": "machine_balance",
      "outputs": [
        {
          "internalType": "uint256",
          "name": "",
          "type": "uint256"
        }
      ],
      "stateMutability": "view",
      "type": "function",
      "constant": true
    },
    {
      "inputs": [
        {
          "internalType": "address",
          "name": "eth_address",
          "type": "address"
        }
      ],
      "name": "addPerson",
      "outputs": [],
      "stateMutability": "nonpayable",
      "type": "function"
    },
    {
      "inputs": [
        {
          "internalType": "uint256",
          "name": "amount",
          "type": "uint256"
        }
      ],
      "name": "buyFromMachine",
      "outputs": [],
      "stateMutability": "nonpayable",
      "type": "function"
    },
    {
      "inputs": [
        {
          "internalType": "address",
          "name": "eth_address",
          "type": "address"
        },
        {
          "internalType": "uint256",
          "name": "amount",
          "type": "uint256"
        }
      ],
      "name": "buyFromUser",
      "outputs": [],
      "stateMutability": "nonpayable",
      "type": "function"
    },
    {
      "inputs": [],
      "name": "resetMachine",
      "outputs": [],
      "stateMutability": "nonpayable",
      "type": "function"
    }
  ],
  "bytecode": "0x60806040526109c460005534801561001657600080fd5b5033600260006101000a81548173ffffffffffffffffffffffffffffffffffffffff021916908373ffffffffffffffffffffffffffffffffffffffff160217905550610920806100676000396000f3fe608060405234801561001057600080fd5b50600436106100a5576000357c010000000000000000000000000000000000000000000000000000000090048063bc672a3811610078578063bc672a381461011e578063c16d44231461013a578063d019e34f1461016a578063d14b42e514610188576100a5565b806327e235e3146100aa5780634f1b390f146100da5780635e52cca3146100f8578063bc0e75dd14610102575b600080fd5b6100c460048036038101906100bf91906105cf565b6101a4565b6040516100d19190610615565b60405180910390f35b6100e26101bc565b6040516100ef9190610615565b60405180910390f35b6101006101c2565b005b61011c6004803603810190610117919061065c565b610271565b005b610138600480360381019061013391906105cf565b610327565b005b610154600480360381019061014f919061065c565b6103da565b6040516101619190610698565b60405180910390f35b610172610419565b60405161017f9190610615565b60405180910390f35b6101a2600480360381019061019d91906106b3565b61041f565b005b60046020528060005260406000206000915090505481565b60005481565b6109c460008190555060005b60015481101561026e57600060046000600384815481106101f2576101f16106f3565b5b9060005260206000200160009054906101000a900473ffffffffffffffffffffffffffffffffffffffff1673ffffffffffffffffffffffffffffffffffffffff1673ffffffffffffffffffffffffffffffffffffffff16815260200190815260200160002081905550808061026690610751565b9150506101ce565b50565b8060005410156102b6576040517f08c379a00000000000000000000000000000000000000000000000000000000081526004016102ad906107f6565b60405180910390fd5b80600460003373ffffffffffffffffffffffffffffffffffffffff1673ffffffffffffffffffffffffffffffffffffffff16815260200190815260200160002060008282546103059190610816565b925050819055508060008082825461031d919061084a565b9250508190555050565b6000600460008373ffffffffffffffffffffffffffffffffffffffff1673ffffffffffffffffffffffffffffffffffffffff168152602001908152602001600020819055506003819080600181540180825580915050600190039060005260206000200160009091909190916101000a81548173ffffffffffffffffffffffffffffffffffffffff021916908373ffffffffffffffffffffffffffffffffffffffff1602179055506103d7610551565b50565b600381815481106103ea57600080fd5b906000526020600020016000915054906101000a900473ffffffffffffffffffffffffffffffffffffffff1681565b60015481565b80600460008473ffffffffffffffffffffffffffffffffffffffff1673ffffffffffffffffffffffffffffffffffffffff1681526020019081526020016000205410156104a1576040517f08c379a0000000000000000000000000000000000000000000000000000000008152600401610498906108ca565b60405180910390fd5b80600460008473ffffffffffffffffffffffffffffffffffffffff1673ffffffffffffffffffffffffffffffffffffffff16815260200190815260200160002060008282546104f0919061084a565b9250508190555080600460003373ffffffffffffffffffffffffffffffffffffffff1673ffffffffffffffffffffffffffffffffffffffff16815260200190815260200160002060008282546105469190610816565b925050819055505050565b60018060008282546105639190610816565b92505081905550565b600080fd5b600073ffffffffffffffffffffffffffffffffffffffff82169050919050565b600061059c82610571565b9050919050565b6105ac81610591565b81146105b757600080fd5b50565b6000813590506105c9816105a3565b92915050565b6000602082840312156105e5576105e461056c565b5b60006105f3848285016105ba565b91505092915050565b6000819050919050565b61060f816105fc565b82525050565b600060208201905061062a6000830184610606565b92915050565b610639816105fc565b811461064457600080fd5b50565b60008135905061065681610630565b92915050565b6000602082840312156106725761067161056c565b5b600061068084828501610647565b91505092915050565b61069281610591565b82525050565b60006020820190506106ad6000830184610689565b92915050565b600080604083850312156106ca576106c961056c565b5b60006106d8858286016105ba565b92505060206106e985828601610647565b9150509250929050565b7f4e487b7100000000000000000000000000000000000000000000000000000000600052603260045260246000fd5b7f4e487b7100000000000000000000000000000000000000000000000000000000600052601160045260246000fd5b600061075c826105fc565b91507fffffffffffffffffffffffffffffffffffffffffffffffffffffffffffffffff820361078e5761078d610722565b5b600182019050919050565b600082825260208201905092915050565b7f496e73756666696369656e742043757063616b657320696e204d616368696e65600082015250565b60006107e0602083610799565b91506107eb826107aa565b602082019050919050565b6000602082019050818103600083015261080f816107d3565b9050919050565b6000610821826105fc565b915061082c836105fc565b925082820190508082111561084457610843610722565b5b92915050565b6000610855826105fc565b9150610860836105fc565b925082820390508181111561087857610877610722565b5b92915050565b7f5468652075736572206973206e6f742054484154207269636800000000000000600082015250565b60006108b4601983610799565b91506108bf8261087e565b602082019050919050565b600060208201905081810360008301526108e3816108a7565b905091905056fea2646970667358221220feaa400e13da6aaf1d3ad5edbcb8e17ea22879e7e43ef5e023b9fac315f7cd2564736f6c63430008130033",
  "immutableReferences": {},
  "source": "pragma solidity 0.8.19;\r\n\r\ncontract VendingMachine {\r\n\r\n    //variables\r\n    uint public machine_balance = 2500;\r\n    uint256 public balance_count;\r\n    address owner;\r\n    address[] public activeAddresses;\r\n    mapping(address => uint) public balances;\r\n\r\n    //functions\r\n    constructor() {\r\n        //setting the deployer of the contract as the owner.\r\n        owner = msg.sender;\r\n    }\r\n\r\n\r\n    function addPerson(address eth_address) public {\r\n        balances[eth_address] = 0;\r\n        activeAddresses.push(eth_address);\r\n        incrementCount();\r\n    }\r\n\r\n    function incrementCount() internal {\r\n        balance_count += 1;\r\n    }\r\n\r\n    function buyFromMachine(uint amount) public {\r\n        require(machine_balance >= amount, \"Insufficient Cupcakes in Machine\");\r\n        balances[msg.sender] += amount;\r\n        machine_balance -= amount;\r\n    }\r\n\r\n    function buyFromUser(address eth_address, uint amount) public {\r\n        require(balances[eth_address] >= amount, \"The user is not THAT rich\");\r\n        balances[eth_address] -= amount;\r\n        balances[msg.sender] += amount;\r\n    }\r\n\r\n    function resetMachine() public {\r\n        machine_balance = 2500;\r\n        for (uint256 i = 0; i < balance_count; i++) {\r\n            balances[activeAddresses[i]] = 0;\r\n        }\r\n    }\r\n\r\n}",
  "sourcePath": "C:\\Users\\54911\\StudioProjects\\cupcake_eth2\\contracts\\cupcake_contract.sol",
  "compiler": {
    "name": "solc",
    "version": "0.8.19+commit.7dd6d404.Emscripten.clang"
  },
  "schemaVersion": "3.4.13",
  "updatedAt": "2023-03-30T13:51:07.345Z",
  "networkType": "ethereum",
  "devdoc": {
    "kind": "dev",
    "methods": {},
    "version": 1
  },
  "userdoc": {
    "kind": "user",
    "methods": {},
    "version": 1
  }
}