{
  "contractName": "VendingMachine",
  "abi": [
    {
      "inputs": [],
      "stateMutability": "nonpayable",
      "type": "constructor"
    },
    {
      "inputs": [],
      "name": "balance_count",
      "outputs": [
        {
          "internalType": "uint256",
          "name": "",
          "type": "uint256"
        }
      ],
      "stateMutability": "view",
      "type": "function",
      "constant": true
    },
    {
      "inputs": [
        {
          "internalType": "address",
          "name": "",
          "type": "address"
        }
      ],
      "name": "balances",
      "outputs": [
        {
          "internalType": "uint256",
          "name": "",
          "type": "uint256"
        }
      ],
      "stateMutability": "view",
      "type": "function",
      "constant": true
    },
    {
      "inputs": [],
      "name": "machine_balance",
      "outputs": [
        {
          "internalType": "uint256",
          "name": "",
          "type": "uint256"
        }
      ],
      "stateMutability": "view",
      "type": "function",
      "constant": true
    },
    {
      "inputs": [
        {
          "internalType": "address",
          "name": "eth_address",
          "type": "address"
        }
      ],
      "name": "addPerson",
      "outputs": [],
      "stateMutability": "nonpayable",
      "type": "function"
    },
    {
      "inputs": [
        {
          "internalType": "uint256",
          "name": "amount",
          "type": "uint256"
        }
      ],
      "name": "buyFromMachine",
      "outputs": [],
      "stateMutability": "nonpayable",
      "type": "function"
    },
    {
      "inputs": [
        {
          "internalType": "address",
          "name": "eth_address",
          "type": "address"
        },
        {
          "internalType": "uint256",
          "name": "amount",
          "type": "uint256"
        }
      ],
      "name": "buyFromUser",
      "outputs": [],
      "stateMutability": "nonpayable",
      "type": "function"
    },
    {
      "inputs": [],
      "name": "myEconomicState",
      "outputs": [
        {
          "internalType": "string",
          "name": "",
          "type": "string"
        }
      ],
      "stateMutability": "view",
      "type": "function",
      "constant": true
    }
  ],
  "bytecode": "0x608060405260c860005534801561001557600080fd5b5033600260006101000a81548173ffffffffffffffffffffffffffffffffffffffff021916908373ffffffffffffffffffffffffffffffffffffffff160217905550610977806100666000396000f3fe608060405234801561001057600080fd5b506004361061009a576000357c010000000000000000000000000000000000000000000000000000000090048063bc0e75dd11610078578063bc0e75dd1461010b578063bc672a3814610127578063d019e34f14610143578063d14b42e5146101615761009a565b806327e235e31461009f5780634f1b390f146100cf578063b034ae55146100ed575b600080fd5b6100b960048036038101906100b49190610626565b61017d565b6040516100c6919061066c565b60405180910390f35b6100d7610195565b6040516100e4919061066c565b60405180910390f35b6100f561019b565b6040516101029190610717565b60405180910390f35b61012560048036038101906101209190610765565b6102ad565b005b610141600480360381019061013c9190610626565b610363565b005b61014b610470565b604051610158919061066c565b60405180910390f35b61017b60048036038101906101769190610792565b610476565b005b60046020528060005260406000206000915090505481565b60005481565b60606000600460003373ffffffffffffffffffffffffffffffffffffffff1673ffffffffffffffffffffffffffffffffffffffff1681526020019081526020016000205490506032811015610228576040518060400160405280600481526020017f506f6f72000000000000000000000000000000000000000000000000000000008152509150506102aa565b6101f4811015610270576040518060400160405280600481526020017f52696368000000000000000000000000000000000000000000000000000000008152509150506102aa565b6040518060400160405280600b81526020017f4d696c6c696f6e616972650000000000000000000000000000000000000000008152509150505b90565b8060005410156102f2576040517f08c379a00000000000000000000000000000000000000000000000000000000081526004016102e99061081e565b60405180910390fd5b80600460003373ffffffffffffffffffffffffffffffffffffffff1673ffffffffffffffffffffffffffffffffffffffff1681526020019081526020016000206000828254610341919061086d565b925050819055508060008082825461035991906108a1565b9250508190555050565b600260009054906101000a900473ffffffffffffffffffffffffffffffffffffffff1673ffffffffffffffffffffffffffffffffffffffff163373ffffffffffffffffffffffffffffffffffffffff16146103bd57600080fd5b6000600460008373ffffffffffffffffffffffffffffffffffffffff1673ffffffffffffffffffffffffffffffffffffffff168152602001908152602001600020819055506003819080600181540180825580915050600190039060005260206000200160009091909190916101000a81548173ffffffffffffffffffffffffffffffffffffffff021916908373ffffffffffffffffffffffffffffffffffffffff16021790555061046d6105a8565b50565b60015481565b80600460008473ffffffffffffffffffffffffffffffffffffffff1673ffffffffffffffffffffffffffffffffffffffff1681526020019081526020016000205410156104f8576040517f08c379a00000000000000000000000000000000000000000000000000000000081526004016104ef90610921565b60405180910390fd5b80600460008473ffffffffffffffffffffffffffffffffffffffff1673ffffffffffffffffffffffffffffffffffffffff168152602001908152602001600020600082825461054791906108a1565b9250508190555080600460003373ffffffffffffffffffffffffffffffffffffffff1673ffffffffffffffffffffffffffffffffffffffff168152602001908152602001600020600082825461059d919061086d565b925050819055505050565b60018060008282546105ba919061086d565b92505081905550565b600080fd5b600073ffffffffffffffffffffffffffffffffffffffff82169050919050565b60006105f3826105c8565b9050919050565b610603816105e8565b811461060e57600080fd5b50565b600081359050610620816105fa565b92915050565b60006020828403121561063c5761063b6105c3565b5b600061064a84828501610611565b91505092915050565b6000819050919050565b61066681610653565b82525050565b6000602082019050610681600083018461065d565b92915050565b600081519050919050565b600082825260208201905092915050565b60005b838110156106c15780820151818401526020810190506106a6565b60008484015250505050565b6000601f19601f8301169050919050565b60006106e982610687565b6106f38185610692565b93506107038185602086016106a3565b61070c816106cd565b840191505092915050565b6000602082019050818103600083015261073181846106de565b905092915050565b61074281610653565b811461074d57600080fd5b50565b60008135905061075f81610739565b92915050565b60006020828403121561077b5761077a6105c3565b5b600061078984828501610750565b91505092915050565b600080604083850312156107a9576107a86105c3565b5b60006107b785828601610611565b92505060206107c885828601610750565b9150509250929050565b7f496e73756666696369656e742043757063616b657320696e204d616368696e65600082015250565b6000610808602083610692565b9150610813826107d2565b602082019050919050565b60006020820190508181036000830152610837816107fb565b9050919050565b7f4e487b7100000000000000000000000000000000000000000000000000000000600052601160045260246000fd5b600061087882610653565b915061088383610653565b925082820190508082111561089b5761089a61083e565b5b92915050565b60006108ac82610653565b91506108b783610653565b92508282039050818111156108cf576108ce61083e565b5b92915050565b7f5468652075736572206973206e6f742054484154207269636800000000000000600082015250565b600061090b601983610692565b9150610916826108d5565b602082019050919050565b6000602082019050818103600083015261093a816108fe565b905091905056fea2646970667358221220f88c9bdda91d67a1787512f46ecc84048256a919e80183a1c9fecec669f7e00564736f6c63430008130033",
  "immutableReferences": {},
  "source": "pragma solidity 0.8.19;\r\n\r\ncontract VendingMachine {\r\n\r\n    //variables\r\n    uint public machine_balance = 200;\r\n    uint256 public balance_count;\r\n    address owner;\r\n    address[] activeAddresses;\r\n    mapping(address => uint) public balances;\r\n\r\n    //functions\r\n    constructor() {\r\n        //setting the deployer of the contract as the owner.\r\n        owner = msg.sender;\r\n    }\r\n\r\n    modifier onlyOwner() {\r\n        require(msg.sender == owner);\r\n        _;\r\n    }\r\n\r\n    function addPerson(address eth_address) public onlyOwner {\r\n        balances[eth_address] = 0;\r\n        activeAddresses.push(eth_address);\r\n        incrementCount();\r\n    }\r\n\r\n    function incrementCount() internal {\r\n        balance_count += 1;\r\n    }\r\n\r\n    function buyFromMachine(uint amount) public {\r\n        require(machine_balance >= amount,\"Insufficient Cupcakes in Machine\");\r\n        balances[msg.sender] += amount;\r\n        machine_balance -= amount;\r\n    }\r\n\r\n    function buyFromUser(address eth_address,uint amount) public {\r\n        require(balances[eth_address] >= amount,\"The user is not THAT rich\");\r\n        balances[eth_address] -= amount;\r\n        balances[msg.sender] += amount;\r\n    }\r\n\r\n    function myEconomicState() public view returns(string memory) {\r\n        uint b =  balances[msg.sender];\r\n\r\n        if (b < 50) {\r\n            return \"Poor\";\r\n        } else if (b < 500) {\r\n            return \"Rich\";\r\n        } else {\r\n            return \"Millionaire\";\r\n        }\r\n    }\r\n\r\n}",
  "sourcePath": "C:\\Users\\54911\\StudioProjects\\cupcake_eth2\\contracts\\cupcake_contract.sol",
  "compiler": {
    "name": "solc",
    "version": "0.8.19+commit.7dd6d404.Emscripten.clang"
  },
  "schemaVersion": "3.4.13",
  "updatedAt": "2023-03-29T03:05:24.727Z",
  "networkType": "ethereum",
  "devdoc": {
    "kind": "dev",
    "methods": {},
    "version": 1
  },
  "userdoc": {
    "kind": "user",
    "methods": {},
    "version": 1
  }
}