{
  "contractName": "VendingMachine",
  "abi": [
    {
      "inputs": [],
      "stateMutability": "nonpayable",
      "type": "constructor"
    },
    {
      "inputs": [],
      "name": "balanceCount",
      "outputs": [
        {
          "internalType": "uint256",
          "name": "",
          "type": "uint256"
        }
      ],
      "stateMutability": "view",
      "type": "function",
      "constant": true
    },
    {
      "inputs": [
        {
          "internalType": "address",
          "name": "",
          "type": "address"
        }
      ],
      "name": "balances",
      "outputs": [
        {
          "internalType": "uint256",
          "name": "",
          "type": "uint256"
        }
      ],
      "stateMutability": "view",
      "type": "function",
      "constant": true
    },
    {
      "inputs": [],
      "name": "cupcake_price",
      "outputs": [
        {
          "internalType": "uint256",
          "name": "",
          "type": "uint256"
        }
      ],
      "stateMutability": "view",
      "type": "function",
      "constant": true
    },
    {
      "inputs": [],
      "name": "machine_balance",
      "outputs": [
        {
          "internalType": "uint256",
          "name": "",
          "type": "uint256"
        }
      ],
      "stateMutability": "view",
      "type": "function",
      "constant": true
    },
    {
      "inputs": [
        {
          "internalType": "address",
          "name": "eth_address",
          "type": "address"
        }
      ],
      "name": "addPerson",
      "outputs": [],
      "stateMutability": "nonpayable",
      "type": "function"
    },
    {
      "inputs": [
        {
          "internalType": "uint256",
          "name": "amount",
          "type": "uint256"
        }
      ],
      "name": "buyFromMachine",
      "outputs": [],
      "stateMutability": "nonpayable",
      "type": "function"
    },
    {
      "inputs": [
        {
          "internalType": "address",
          "name": "eth_address",
          "type": "address"
        },
        {
          "internalType": "uint256",
          "name": "amount",
          "type": "uint256"
        }
      ],
      "name": "buyFromUser",
      "outputs": [],
      "stateMutability": "nonpayable",
      "type": "function"
    },
    {
      "inputs": [],
      "name": "myEconomicState",
      "outputs": [
        {
          "internalType": "string",
          "name": "",
          "type": "string"
        }
      ],
      "stateMutability": "view",
      "type": "function",
      "constant": true
    }
  ],
  "bytecode": "0x608060405260646000556001805534801561001957600080fd5b5033600360006101000a81548173ffffffffffffffffffffffffffffffffffffffff021916908373ffffffffffffffffffffffffffffffffffffffff1602179055506109448061006a6000396000f3fe608060405234801561001057600080fd5b50600436106100a5576000357c010000000000000000000000000000000000000000000000000000000090048063b034ae5511610078578063b034ae5514610134578063bc0e75dd14610152578063bc672a381461016e578063d14b42e51461018a576100a5565b806314d17c58146100aa57806327e235e3146100c85780634f1b390f146100f857806394f628c814610116575b600080fd5b6100b26101a6565b6040516100bf91906105a9565b60405180910390f35b6100e260048036038101906100dd9190610627565b6101ac565b6040516100ef91906105a9565b60405180910390f35b6101006101c4565b60405161010d91906105a9565b60405180910390f35b61011e6101ca565b60405161012b91906105a9565b60405180910390f35b61013c6101d0565b60405161014991906106e4565b60405180910390f35b61016c60048036038101906101679190610732565b6102e2565b005b61018860048036038101906101839190610627565b610398565b005b6101a4600480360381019061019f919061075f565b610442565b005b60025481565b60046020528060005260406000206000915090505481565b60005481565b60015481565b60606000600460003373ffffffffffffffffffffffffffffffffffffffff1673ffffffffffffffffffffffffffffffffffffffff168152602001908152602001600020549050603281101561025d576040518060400160405280600481526020017f506f6f72000000000000000000000000000000000000000000000000000000008152509150506102df565b6101f48110156102a5576040518060400160405280600481526020017f52696368000000000000000000000000000000000000000000000000000000008152509150506102df565b6040518060400160405280600b81526020017f4d696c6c696f6e616972650000000000000000000000000000000000000000008152509150505b90565b806000541015610327576040517f08c379a000000000000000000000000000000000000000000000000000000000815260040161031e906107eb565b60405180910390fd5b80600460003373ffffffffffffffffffffffffffffffffffffffff1673ffffffffffffffffffffffffffffffffffffffff1681526020019081526020016000206000828254610376919061083a565b925050819055508060008082825461038e919061086e565b9250508190555050565b600360009054906101000a900473ffffffffffffffffffffffffffffffffffffffff1673ffffffffffffffffffffffffffffffffffffffff163373ffffffffffffffffffffffffffffffffffffffff16146103f257600080fd5b6000600460008373ffffffffffffffffffffffffffffffffffffffff1673ffffffffffffffffffffffffffffffffffffffff1681526020019081526020016000208190555061043f610574565b50565b80600460008473ffffffffffffffffffffffffffffffffffffffff1673ffffffffffffffffffffffffffffffffffffffff1681526020019081526020016000205410156104c4576040517f08c379a00000000000000000000000000000000000000000000000000000000081526004016104bb906108ee565b60405180910390fd5b80600460008473ffffffffffffffffffffffffffffffffffffffff1673ffffffffffffffffffffffffffffffffffffffff1681526020019081526020016000206000828254610513919061086e565b9250508190555080600460003373ffffffffffffffffffffffffffffffffffffffff1673ffffffffffffffffffffffffffffffffffffffff1681526020019081526020016000206000828254610569919061083a565b925050819055505050565b600160026000828254610587919061083a565b92505081905550565b6000819050919050565b6105a381610590565b82525050565b60006020820190506105be600083018461059a565b92915050565b600080fd5b600073ffffffffffffffffffffffffffffffffffffffff82169050919050565b60006105f4826105c9565b9050919050565b610604816105e9565b811461060f57600080fd5b50565b600081359050610621816105fb565b92915050565b60006020828403121561063d5761063c6105c4565b5b600061064b84828501610612565b91505092915050565b600081519050919050565b600082825260208201905092915050565b60005b8381101561068e578082015181840152602081019050610673565b60008484015250505050565b6000601f19601f8301169050919050565b60006106b682610654565b6106c0818561065f565b93506106d0818560208601610670565b6106d98161069a565b840191505092915050565b600060208201905081810360008301526106fe81846106ab565b905092915050565b61070f81610590565b811461071a57600080fd5b50565b60008135905061072c81610706565b92915050565b600060208284031215610748576107476105c4565b5b60006107568482850161071d565b91505092915050565b60008060408385031215610776576107756105c4565b5b600061078485828601610612565b92505060206107958582860161071d565b9150509250929050565b7f496e73756666696369656e742043757063616b657320696e204d616368696e65600082015250565b60006107d560208361065f565b91506107e08261079f565b602082019050919050565b60006020820190508181036000830152610804816107c8565b9050919050565b7f4e487b7100000000000000000000000000000000000000000000000000000000600052601160045260246000fd5b600061084582610590565b915061085083610590565b92508282019050808211156108685761086761080b565b5b92915050565b600061087982610590565b915061088483610590565b925082820390508181111561089c5761089b61080b565b5b92915050565b7f5468652075736572206973206e6f742054484154207269636800000000000000600082015250565b60006108d860198361065f565b91506108e3826108a2565b602082019050919050565b60006020820190508181036000830152610907816108cb565b905091905056fea264697066735822122084439495b813056736cda0b8c2e4410b7c9ac481123db84193ffd73f1fb86a5764736f6c63430008130033",
  "immutableReferences": {},
  "source": "pragma solidity 0.8.19;\r\n\r\ncontract VendingMachine {\r\n\r\n    //variables\r\n    uint public machine_balance = 100;\r\n    uint public cupcake_price = 1;\r\n\r\n    uint256 public balanceCount;\r\n\r\n    address owner;\r\n\r\n    mapping(address => uint) public balances;\r\n\r\n    //functions\r\n    constructor() {\r\n        //setting the deployer of the contract as the owner.\r\n        owner = msg.sender;\r\n    }\r\n\r\n    modifier onlyOwner() {\r\n        require(msg.sender == owner);\r\n        _;\r\n    }\r\n\r\n    function addPerson(address eth_address) public onlyOwner {\r\n        balances[eth_address] = 0;\r\n        incrementCount();\r\n    }\r\n\r\n    function incrementCount() internal {\r\n        balanceCount += 1;\r\n    }\r\n\r\n    function buyFromMachine(uint amount) public {\r\n        require(machine_balance >= amount,\"Insufficient Cupcakes in Machine\");\r\n        balances[msg.sender] += amount;\r\n        machine_balance -= amount;\r\n    }\r\n\r\n    function buyFromUser(address eth_address,uint amount) public {\r\n        require(balances[eth_address] >= amount,\"The user is not THAT rich\");\r\n        balances[eth_address] -= amount;\r\n        balances[msg.sender] += amount;\r\n    }\r\n\r\n    function myEconomicState() public view returns(string memory) {\r\n        uint b =  balances[msg.sender];\r\n\r\n        if (b < 50) {\r\n            return \"Poor\";\r\n        } else if (b < 500) {\r\n            return \"Rich\";\r\n        } else {\r\n            return \"Millionaire\";\r\n        }\r\n    }\r\n\r\n}",
  "sourcePath": "C:\\Users\\54911\\StudioProjects\\cupcake_eth2\\contracts\\cupcake_contract.sol",
  "compiler": {
    "name": "solc",
    "version": "0.8.19+commit.7dd6d404.Emscripten.clang"
  },
  "schemaVersion": "3.4.13",
  "updatedAt": "2023-03-27T20:53:38.049Z",
  "networkType": "ethereum",
  "devdoc": {
    "kind": "dev",
    "methods": {},
    "version": 1
  },
  "userdoc": {
    "kind": "user",
    "methods": {},
    "version": 1
  }
}